:03000000020D836B
:0C0D8300787FE4F6D8FD758141020CD6A3
:100C470054454D50523A46414E204F4E4854524F0C
:100C57004E53504545443A4C4556454C204845412E
:100C6700543A4C4556454C204E4F524D2E46414E18
:080C77002C485452204F464660
:070CAF00120D287F1E7E00DC
:100CB600E4FDFCC3ED9FEC9E5015E4FBFA0BBB0074
:0F0CC600010ABA04F8BBFBF50DBD00010C80E478
:010CD50022FC
:100D3300D297C2A0D2A130970DC2A2D2A27F017EC8
:070D430000120CB680F02243
:070D4A00AF09120C7F7F8B43
:100D5100A907120D338990C2A0C2A1D2A2C2A222B8
:100D61007F38120D517F0C120D517F01120D517FF1
:040D710080020D519E
:0E0D1A007F327E00120CB6740A2508F8E6FF40
:0B0D28008F90D2A0C2A1D2A2C2A222D2
:100CF900A905120CAF120CB6AF01120D287F1E12F6
:100D09000CB67F20120D287F1E120CB67F43020DF0
:010D190028B1
:100C7F00EF75F00A120BDCFEEF75F00A120BDCAF0A
:100C8F00F0AD07EE75F00A120BDCAFF0EE75F00A5F
:100C9F00120BDCFE430530430730430630020CF9DC
:070BFE007F86120D51AF09C3
:100C0500EF75F00A120BDCFEEF75F00A120BDCAF84
:100C1500F0A907EE75F00A120BDCAFF0EE75F00ADD
:100C2500120BDCFE430130430730430630120CAF94
:100C3500120CB6AF01120D287F1E120CB67FC00232
:020C45000D514F
:0D0D7500C2A4D2A420A3FDC2A5AFB0D2A598
:010D8200224E
:10080000780A7C007D007BFF7A0C79477E007F06AA
:10081000120BB678107C007D007BFF7A0C794D7E40
:10082000007F06120BB678167C007D007BFF7A0CE9
:1008300079537E007F05120BB6781B7C007D007B10
:10084000FF7A0C79587E007F0C120BB678277C005B
:100850007D007BFF7A0C79647E007F0B120BB678EB
:10086000327C007D007BFF7A0C796F7E007F051261
:100870000BB678377C007D007BFF7A0C79747E00A4
:100880007F0B120BB6120D758F09E509D394144036
:100890000302095D7F01120D51E4F508120D1A05DE
:1008A00008E508C3940640F4120D4AE4F508120C5A
:1008B000B27416120D230508E508C3940540EFE550
:1008C00009D3940A4048E509D394145041D2A6D2E2
:1008D00081C2807F017E00120CB67531317FC0125B
:1008E0000D51E4F508120CB27427120D230508E52A
:1008F00008C3940B40EF120D758F09E509D3940AD4
:10090000400CE509D394145005120BFE80E8E5096C
:10091000C394004048E509D3940A5041D2A6D2803E
:10092000C2817F017E00120CB67FC0120D5175315D
:1009300032E4F508120CB27427120D230508E508FD
:10094000C3940B40EF120D758F09E509C394004065
:100950000CE509D3940A5005120BFE80E8E509D393
:100960009414406BE509D394195064D280D281D29B
:10097000A67F01120D51E4F508120D1A0508E508CD
:10098000C3940640F4AF09120C7FE4F508120CB2D0
:100990007432120D230508E508C3940540EF7FC0AB
:1009A000120D51E4F508120CB27437120D2305082C
:1009B000E508C3940B40EF120D758F09E509D39438
:1009C00014400CE509D394195005120BFE80E8E59C
:1009D00009C394195003020885D280D2817F011285
:1009E0000D51E4F508120D1A0508E508C3940640F8
:1009F000F4120D4AE4F508120CB27410120D23051E
:100A000008E508C3940540EFE509D394194049E58A
:100A100009D3941E50427FC0120D51752631E4F562
:100A200008120CB2741B120D230508E508C3940CC0
:100A300040EFC2A67F327E00120CB6D2A6120CB6D0
:100A4000120D758F09E509D39419400CE509D3946B
:100A50001E5005120BFE80DAE509D3941E404BE5CB
:100A600009D3942350447526327FC0120D51E4F50A
:100A700008120CB2741B120D230508E508C3940C70
:100A800040EFC2A67F4B7E00120CB6D2A67F191291
:100A90000CB6120D758F09E509D3941E400CE509BB
:100AA000D394235005120BFE80D8E509D39423502C
:100AB000030208857526337FC0120D51E4F5081234
:100AC0000CB2741B120D230508E508C3940C40EF0B
:100AD000C2A6120D758F09E509D3942350030208AD
:060AE00085120BFE80EA06
:100CD6007580FF75B0FFD2A3D2A5D2A4D2A6C280DA
:100CE600C2817FF47E01120CB6D280D281120D61D0
:030CF600020800F1
:100AE600E709F608DFFA8046E709F208DFFA803EF2
:100AF60088828C83E709F0A3DFFA8032E309F608DF
:100B0600DFFA8078E309F208DFFA807088828C8346
:100B1600E309F0A3DFFA806489828A83E0A3F608FA
:100B2600DFFA805889828A83E0A3F208DFFA804CD4
:100B360080D280FA80C680D4806980F280338010AB
:100B460080A680EA809A80A880DA80E280CA803314
:100B560089828A83ECFAE493A3C8C582C8CCC5838C
:100B6600CCF0A3C8C582C8CCC583CCDFE9DEE7805C
:100B76000D89828A83E493A3F608DFF9ECFAA9F0DB
:100B8600EDFB2289828A83ECFAE0A3C8C582C8CC31
:100B9600C583CCF0A3C8C582C8CCC583CCDFEADE4A
:100BA600E880DB89828A83E493A3F208DFF980CCAC
:100BB60088F0EF60010E4E60C388F0ED2402B404A5
:100BC6000050B9F582EB2402B4040050AF2323454C
:060BD6008223900B367330
:100BDC00C2D530F707B2D563F0FF05F030E70CB2A1
:100BEC00D5F4048463F0FF05F080018430D502F461
:020BFC000422D1
:00000001FF
